:020000040000FA
:10000000781C0020752700007D270000D503000024
:1000100081270000832700008527000000000000E2
:10002000000000000000000000000000610300006C
:100030008927000000000000890300004907000034
:100040008F270000912700009327000095270000CC
:1000500097270000992700009B2700009D2700009C
:100060009F270000A1270000A3270000A52700006C
:10007000A7270000A9270000AB270000AD2700003C
:10008000AF270000B1270000B3270000B52700000C
:10009000B7270000B9270000BB270000BD270000DC
:1000A000BF270000C1270000C3270000C5270000AC
:1000B000C7270000C9270000CB270000CD2700007C
:1000C000CF270000D1270000D3270000D52700004C
:1000D000D7270000D9270000DB270000DD2700001C
:1000E000DF270000E127000000000000E3270000F8
:1000F000E5270000E7270000E9270000EB270000C4
:10010000ED270000EF270000F1270000F327000093
:100110000000000000000000F5270000F7270000A5
:10012000F9270000FB270000FD270000FF27000043
:10013000012800000328000005280000072800000F
:1001400000000000000000000000000000000000AF
:10015000092800000B2800000D2800000F280000CF
:10016000000000000000000000000000000000008F
:10017000000000000000000000000000000000007F
:10018000000000000000000000000000000000006F
:10019000000000000000000000000000000000005F
:1001A000000000000000000000000000000000004F
:1001B000112800001328000015280000172800004F
:1001C000192800001B2800001D2800001F2800001F
:1001D00021280000232800002528000027280000EF
:1001E000292800002B2800002D2800000000000016
:1001F000000000002F2800003128000033280000F4
:100200003528000037280000000000000000000032
:10021000392800003B2800003D2800003F2800004E
:10022000412800004328000045280000472800001E
:10023000492800004B2800004D2800004F280000EE
:1002400051280000532800005528000057280000BE
:10025000592800005B2800005D2800005F2800008E
:1002600061280000632800006528000000F002F803
:1002700000F067F80AA090E8000C82448344AAF1D9
:100280000107DA4501D100F05CF8AFF2090EBAE8D7
:100290000F0013F0010F18BFFB1A43F001031847BA
:1002A00058300000783000000A444FF0000C10F87D
:1002B000013B13F0070408BF10F8014B1D1108BFE4
:1002C00010F8015B641E05D010F8016B641E01F884
:1002D000016BF9D113F0080F1EBF10F8014BAD1CD4
:1002E0000C1B09D16D1E58BF01F801CBFAD505E0F2
:1002F00014F8016B01F8016B6D1EF9D59142D6D34C
:10030000704700000023002400250026103A28BF73
:1003100078C1FBD8520728BF30C148BF0B60704777
:10032000642902F09383752902F09083732902F007
:100330009C84002070471FB502F020FD1FBD10B542
:1003400010BD02F0E9FC1146FFF7F5FF00F04EFD8D
:1003500002F007FD03B4FFF7F2FF03BC00F06EF8F4
:1003600072B61EF0040F0CBFEFF30880EFF30980A4
:100370000449C1F800E000F07AF90249D1F800E040
:1003800062B670471C00002072B6EFF309801EF0C1
:10039000100F08BF20ED108A7246EFF3148320E996
:1003A000FC0F0A490A681060094C24680C60206838
:1003B000B0E8FC0F964683F314881EF0100F08BFB8
:1003C000B0EC108A80F3098862B6704718000020EC
:1003D000340000201EF0040F0CBFEFF30880EFF391
:1003E000098000F0D3B9000010B504461448047029
:1003F0001448012142691248904710BD10B54FF0D2
:1004000080704069816B10488847C0B210BD70B5DC
:1004100004460D46E0B2FFF7E7FF204670BD10B579
:100420000446FFF7EBFF10BD01464FF0FF30704769
:1004300010B50446E0B2FFF7D7FF10BD00BFFEE7DE
:1004400008000020C42D000000C0004030480068B3
:1004500040F020002E4908602E48006840F00E0051
:100460002C4908602C48006840F00E002A490860BA
:100470007047014621B1012904D0022906D103E0C9
:10048000022003E0082001E0042000BF00BF72B694
:10049000204A121F12684240204BC3F8FC2362B668
:1004A0007047014621B1012904D0022906D103E099
:1004B000022003E0082001E0042000BF00BF154A2D
:1004C000121F12684240154BC3F8FC2370470020EE
:1004D00005E013490968491C114A1160401C114983
:1004E0008842F6D3704710B50F4881682046884788
:1004F0000D480169022088470B484FF4E131826AB8
:100500000120904708480121826A1520904710BDBC
:1005100008E60F40005402401C55024000500240C3
:100520000C00002055581400C42D00002448006819
:10053000704723480068401C402801D101207047C3
:100540001F480068401C1E4908600020F7E71C484F
:10055000006808B90120704719480068401E184912
:1005600008600020F7E710B50446204602F0CEFAF6
:100570003D2801D9012010BD1249114A126801EB32
:100580008210214602F09EFAFFF7D3FF08B1012046
:10059000F1E70020EFE710B500240CE0094800EB7C
:1005A000841109A002F0E8F9064901EB841040210A
:1005B00002F0CBFA641CFFF7CAFF0028EED010BD92
:1005C00010000020D001002025730A0D000000005B
:1005D00010B5002804DB4A07130E6D4A135406E0D9
:1005E0004A07140E6B4A00F00F031B1FD45410BDB2
:1005F00000206949086062B67047012066490860BA
:1006000072B6704710B5FFF7F8FF6248001F006828
:1006100040F400705F49091F08604FF08071896FD6
:1006200008698047FFF7E4FF00F058FB08B100BFFE
:10063000FEE7002010BD01205849086000DF0020BF
:10064000704756480068704755480068704701DF9A
:10065000704710B50446204602DF10BD4D481438DF
:10066000006840F080504B4914390860704770B5FD
:100670000546A86910F8026C01204749086026B1B8
:10068000012E40D0022E58D14EE04648006846491F
:1006900008600846006800680068444908604249EC
:1006A0000968096801F1280080F3098800BFFF216B
:1006B0006FF00100FFF78CFF4FF47A54601EB0F129
:1006C000807F01D301200FE0601E4FF0E0214861E0
:1006D00007214FF0FF30FFF77BFF00204FF0E021B4
:1006E000886107200861002000B100BE032080F36C
:1006F000148800BF00BF00BF00BFBFF36F8F00BFF3
:1007000000BF00BF1BE028480068264909688842EE
:1007100001D0FFF7A3FF00BF00BF00BFBFF36F8F83
:1007200000BF00BF00BF0AE000BF00BF00BFBFF3B3
:100730006F8F00BF00BF00BF01E000BE00BF00BF61
:1007400000201549086070BD10B5FFF756FF14482A
:100750000068401C1249086015480068401C144994
:100760000860A0F23A7010B196280BD103E0022085
:10077000FFF797FE06E000200D4908600220FFF712
:1007800090FE00BF00BFFFF733FF10BD00BE7047F3
:1007900000E400E018ED00E024000020200000202C
:1007A0001400002034000020180000201C0000204D
:1007B000280000200146564808E0026812690B69CB
:1007C0009A4200DC05E0026802F118000268002A83
:1007D000F3D100BF02688A6101604E4A1268521C60
:1007E0004C4B1A60704730B504460D460CB90020DA
:1007F00030BDA06810F1030F02DBA068032801DD03
:100800000020F5E744480068606144480068401CE7
:1008100042490860A0682061002084F83000E0614F
:10082000A062E0626062A061E16820680844483824
:100830002060D4E9001008644FF08070216848649B
:100840006FF002002168086003202168486020469C
:10085000FFF7B0FF2046CBE72D4805E000B100E0F0
:1008600000BF016801F1180001680029F6D1704746
:100870000146274806E002688A4200D105E0026886
:1008800002F118000268002AF5D100BF026842B1E7
:100890008A69026000228A611E4A1268521E1D4B3C
:1008A0001A6070471E480068704701460020704774
:1008B00010B5FFF7CCFE002010BD70B504460D4604
:1008C0000CB9862070BD256194F8300040B92046EF
:1008D000FFF7CEFF2046FFF76DFFFFF7B8FE0BE0F6
:1008E00094F83000012807D12146E06900F040F873
:1008F0002146E06900F024F80020E3E7014609B949
:10090000842070470869FCE7704701480068704719
:1009100034000020380000202C000020300000208F
:10092000180000200146084606E0026802B100E017
:1009300000BF026802F120000268002AF5D170476A
:1009400010B50246104608E003681B690C69A34213
:1009500000DC05E0036803F120000368002BF3D1FD
:1009600000BF03680B62016053685B1C536010BDDD
:1009700010B50246104606E003688B4200D105E040
:10098000036803F120000368002BF5D100BF036862
:100990002BB10B6A0468236253685B1E536010BD61
:1009A0000146086808B9002070470A68106A0860A4
:1009B000002010624868401E48601046F4E700229C
:1009C000026042608160BF4A12688261BD4A106065
:1009D000BD4A1268521CBC4B1A607047F0B5044601
:1009E0000D4616461F460CB98020F0BD0DB980207B
:1009F000FBE7E56121462846FFF7A2FF0020F4E768
:100A00002DE9F84F044689464FF47A70A9FB00504F
:100A100006464FF0000A00200090FFF743FF834690
:100A20001CB94FF0FF30BDE8F88F09F1010010B19B
:100A30004FF0FF30F7E7A068401EA060002801DB00
:100A4000A068F0E7B9F1000F02D14FF0FF30EAE7FC
:100A500001208BF830009D480068FFF709FFB9F1CD
:100A6000FF3F0AD14FF0FF331A4621465846FFF7A1
:100A7000B5FFF8B14FF0FF30D5E74FF47A7100229F
:100A8000A5FB017306FB013105FB0211904A00230F
:100A9000384601F0FAFE8246FFF7D6FD504400903A
:100AA000534621465846009AFFF798FF10B14FF081
:100AB000FF30B8E7FFF7CBFDA068002801DA00207F
:100AC000B1E7A068AFE770B504460CB9802070BDEF
:100AD000A068401CA060606808B90020F7E72046C5
:100AE000FFF75EFF0546002085F830002846FFF737
:100AF00061FEFFF7ACFD0020E9E7014600207047EA
:100B00000246002070470346002070472DE9F0415F
:100B10000446FFF7C7FE0646002500276FF00208CF
:100B2000A068401CA060B0683061002020610021F6
:100B30006069401E674A42F8201067480068A0427A
:100B40001CD100206449086000BF10E0614850F8E3
:100B5000250058B15F4850F82500C068404505DDC4
:100B60002F465C4850F82500D0F80C806D1C022DF3
:100B7000ECD3584850F8270057490860BDE8F08189
:100B800070B50446FFF78EFE05465348006850B125
:100B9000514928690968C968884204DC4E480068E0
:100BA0000069A84215D14C48006828B14A49E0685C
:100BB0000968C968884201DD4748046025616069A9
:100BC000401E444941F82040A068401EA060A06833
:100BD00070BD4FF0FF30FBE72DE9F04104460F46B2
:100BE000FFF760FE0546002614B9701EBDE8F081CF
:100BF000A068002808DD2046FFF7C2FF0646B6F1D0
:100C0000FF3F01D03046F1E73348006800690069D2
:100C1000296988420EDA304928690968096908613A
:100C20002D4909680869FFF723FE2B4909680869FF
:100C3000FFF7C0FD012085F8300024480068FFF769
:100C400017FE4FF0FF331A4621462846FFF7C6FE2F
:100C500010B14FF0FF30C9E7FFF7F9FCA06800289A
:100C600001DC0020C2E72046FFF78AFF0646B6F106
:100C7000FF3F01D03046B9E70020B7E770B5044622
:100C8000FFF710FE06460CB9802070BD2046FFF726
:100C90003DFF3046FFF7ECFD3046FFF78BFD606807
:100CA00008B90020F1E72046FFF77AFE054600204C
:100CB00085F830002846FFF77DFDFFF7C8FC0020CF
:100CC000E3E700003C000020400000201800002066
:100CD00040420F00480000204400002010B50021D1
:100CE0000E48FFF780FD0E4908600846006810B9FD
:100CF0004FF0FF3010BD0020FCE704E009A001F038
:100D00003BFE00BFFEE7F9E710B500F04AF80FA080
:100D100000F028F808B100BFFEE710BD5000002029
:100D20008400002069646C652074687265616420C9
:100D300072756E6E696E67202121212020545750F4
:100D40005631202053544F50210A0D0074687265AB
:100D5000616449646C652064756D706564207472AB
:100D60006163650010B504464FF0FF311948006813
:100D7000FFF746FE401C80B12046FFF7F4FB08B1A8
:100D800000BFFEE713480068FFF79DFE38B112A0D0
:100D9000FFF7E9FB18B100BFFEE700BFFEE7002048
:100DA00010BD10B54FF0FF310A480068FFF728FE6C
:100DB000401C60B1FFF7EFFB06480068FFF783FEB9
:100DC00038B105A0FFF7CFFB18B100BFFEE700BFA9
:100DD000FEE710BD880000202072656C65617365B8
:100DE0002073656D31206661696C000010B5FFF7F6
:100DF00009FCFFF778FB2FA001F0BEFDFFF726FBF3
:100E00003AA001F0B9FD01F01FF83DA001F0B4FDDA
:100E100000F040F908B100BFFEE700F0D9FA08B1D0
:100E200000BFFEE700F026FA08B100BFFEE700F0C1
:100E3000E1FB08B100BFFEE700F098FD08B100BF7C
:100E4000FEE73EA001F098FD46A001F095FD00F000
:100E5000F7F808B100BFFEE700F034FD08B100BFAD
:100E6000FEE700F059FD08B100BFFEE700F0C2FF49
:100E700008B100BFFEE748A001F07EFD51A001F0DF
:100E80007BFD01F035F808B100BFFEE755A001F089
:100E900073FD01F05FF808B100BFFEE759A001F053
:100EA0006BFDFFF7C8FB5BA001F066FD00BE0020F4
:100EB00010BD00000A0D50726F6A656374205043C4
:100EC000503A20526176656E4F532044656D6F2015
:100ED00056657273696F6E20322020284465632046
:100EE00031312C2032303137290A0D0054696D65BB
:100EF0007220496E697469616C697A650A0D000037
:100F0000496E697469616C697A696E672074687288
:100F1000656164312C20746872656164322C2074C0
:100F20006872656164332C20746872656164342C66
:100F300020746872656164350A0D0000416C6C2094
:100F40007468726561647320696E697469616C6943
:100F50007A6564207375636365737366756C6C7909
:100F60000A0D0000496E697469616C697A696E677F
:100F70002073656D6170686F7265732053656D31A4
:100F80002C2053656D322C2053656D332C20536516
:100F90006D340A0D00000000416C6C2053656D61DA
:100FA00070686F72657320696E697469616C697AC3
:100FB0006564207375636365737366756C6C790A19
:100FC0000D0000006372656174696E6720504350C4
:100FD000205265736F757263652053657276657212
:100FE000310A0D006372656174696E672050435069
:100FF000205265736F7572636520536572766572F2
:10100000320A0D005374617274206B65726E656CE8
:101010000A0D000054726F75626C65202D2D2072D0
:10102000657475726E65642066726F6D206F734BA8
:1010300065726E656C537461727428290A0D000024
:1010400010B500210D48FFF7BAFC0D4908600846AD
:10105000006810B94FF0FF3010BD0AA001F08CFC01
:101060000020F9E710B506480068FFF746FD10B10B
:101070004FF0FF3010BD0020FCE700007C0F002087
:1010800088000020637265617465642073656D314A
:101090000A0D000010B500212B48FFF7A4FB2B49D7
:1010A00008600846006810B94FF0FF3010BD0020FE
:1010B000FCE710B525480068FFF7F7FB10B14FF0CB
:1010C000FF3010BD0020FCE73DE04FF0FF3120482D
:1010D0000068FFF795FC002830DB1EA001F04CFCF7
:1010E00021A001F049FC4FF0FF3126480068FFF7CE
:1010F00073FD002819DB24A001F03EFC294801F013
:101100003BFC29A001F038FC30A001F035FC1D4863
:101110000068FFF7B3FD20B134A001F02DFC00BF43
:10112000FEE73C4801F028FC04E03BA001F024FC71
:1011300000BFFEE741A001F01FFC04E043A001F066
:101140001BFC00BFFEE7C0E78C000020C0000020B1
:1011500088000020205461736B313A2048656C6C24
:101160006F210A0D000000005461736B313A204C6E
:101170006F636B696E6720536572766572322021EA
:10118000200A0D00C80100205461736B313A2053CE
:10119000657276657232204C6F636B656420212026
:1011A0000A0D0000FC2D00005461736B313A205091
:1011B0006572666F726D696E6720536F6D6520573B
:1011C0006F726B2021200A0D000000005461736BC8
:1011D000313A20556E6C6F636B696E672053657290
:1011E000766572203220210A0D0000005461736B75
:1011F000313A206661696C656420746F2072656C99
:10120000656173652073656D6170686F726520300C
:10121000210A0D00482E00005461736B3120666175
:10122000696C656420746F206163717569726520F3
:1012300053657276657220320A0D00005461736B3B
:10124000313A2042796521200A0D000074687265E8
:10125000616431206661696C656420746F2061632C
:1012600071756972652073656D6170686F72652054
:10127000310A0D0010B523A0FFF775F908B100BFC2
:10128000FEE700212348FFF7AEFA2349086008462D
:10129000006810B94FF0FF3010BD0020FCE710B51A
:1012A000FFF77FFD1C480068FFF7FFFA10B14FF011
:1012B000FF3010BD0020FCE723E04FF0FF3117485E
:1012C0000068FFF79DFB002816DB15A001F054FB1A
:1012D00018A001F051FB1C480068FFF7F4FB20B197
:1012E0001AA001F049FB00BFFEE722A001F044FB79
:1012F00029A001F041FB04E02BA001F03DFB00BF61
:10130000FEE7DAE77468726561643320696E6974B8
:1013100000000000C4000020F80000207001002040
:10132000205461736B333A2048656C6C6F210A0D51
:101330000000000052656C656173696E672054613E
:10134000736B320A0D0000006C0100207468726536
:10135000616435206661696C656420746F20726514
:101360006C656173652073656D6170686F7265206F
:10137000320A0D005461736B333A20506572666F08
:10138000726D696E6720536F6D6520576F726B20A9
:1013900021200A0D000000005461736B333A204293
:1013A000796521200A0D000074687265616433203C
:1013B0006661696C656420746F2061637175697220
:1013C000652073656D6170686F726520330A0D006A
:1013D00010B500213948FFF706FA39490860084678
:1013E000006810B94FF0FF3010BD0020FCE710B5C9
:1013F00033480068FFF759FA10B14FF0FF3010BDC5
:101400000020FCE758E04FF0FF312E480068FFF75E
:10141000F7FA002848DB2CA001F0AEFA2FA001F06B
:10142000ABFAFF21344800F033FD4FF0FF31334871
:101430000068FFF7D1FB002831DBFF212E4800F0C8
:1014400046FD2F490860FF212B4800F035FD2DA0F7
:1014500001F092FA324801F08FFA32A001F08CFAD2
:1014600039A001F089FAFF21234800F011FD23483B
:101470000068FFF703FC20B13BA001F07DFA00BF3C
:10148000FEE7FF211C4800F022FD41490860FF21D2
:10149000194800F011FD3F4801F06EFA09E03EA046
:1014A00001F06AFA00BFFEE744A001F065FA00BF50
:1014B000FEE74CA001F060FAA5E70000FC00002068
:1014C000300100206C010020205461736B323A20FF
:1014D00048656C6C6F210A0D000000005461736B4D
:1014E000323A204C6F636B696E6720536572766584
:1014F00072312021200A0D0000100340C401002099
:10150000BC0100205461736B323A205365727665DA
:101510007231204C6F636B65642021200A0D00003E
:10152000902E00005461736B323A20506572666FE2
:10153000726D696E6720536F6D6520576F726B20F7
:1015400021200A0D000000005461736B323A2055CF
:101550006E6C6F636B696E6720536572766572207F
:101560003120210A0D0000005461736B323A20666D
:1015700061696C656420746F2072656C6561736568
:10158000205365727665722031210A0D000000003B
:10159000B8010020DC2E00005461736B323A2066E3
:1015A00061696C656420746F20616371756972652F
:1015B0002053657276657220310A0D007468726579
:1015C000616432206661696C656420746F206163B8
:1015D00071756972652073656D6170686F726520E1
:1015E000320A0D005461736B323A20427965212032
:1015F0000A0D000010B500214048FFF7F4F84049FB
:1016000008600846006810B94FF0FF3010BD3DA0DB
:1016100001F0B2F90020F9E710B539480068FFF78A
:1016200044F910B14FF0FF3010BD0020FCE764E03A
:101630004FF0FF3138480068FFF7E2F9002857DB28
:1016400036A001F099F93AA001F096F9FF213F4840
:1016500000F01EFC4FF0FF313D480068FFF7BCFA78
:1016600000283CDB3BA001F087F9414801F084F9F8
:1016700040A001F081F948A001F07EF94FF0FF3160
:101680004C480068FFF7A8FA002812DB4AA001F0D6
:1016900073F938A001F070F94EA001F06DF94548DA
:1016A0000068FFF7EBFA48B152A001F065F900BFFE
:1016B000FEE75AA001F060F900BFFEE760A001F06C
:1016C0005BF923480068FFF7D9FA20B164A001F064
:1016D00053F900BFFEE76C4801F04EF904E04FA05B
:1016E00001F04AF900BFFEE768A001F045F904E007
:1016F0006AA001F041F900BFFEE799E7340100203C
:1017000068010020637265617465642074687265A5
:101710006164340A0D000000AC01002020546173A4
:101720006B343A2048656C6C6F210A0D0000000094
:101730005461736B343A204C6F636B696E6720534E
:1017400065727665723221200A0D00000010034098
:10175000C80100205461736B343A2053657276657A
:101760007232204C6F636B65642021200A0D0000EB
:10177000242F00005461736B343A20506572666FF9
:10178000726D696E6720536F6D6520576F726B20A5
:1017900021200A0D000000005461736B343A204C84
:1017A0006F636B696E6720536572766572312120B5
:1017B0000A0D0000C40100205461736B343A2053B9
:1017C000657276657231204C6F636B6564202120F1
:1017D0000A0D00005461736B343A20556E6C6F63D0
:1017E0006B696E6720536572766572203120210A1D
:1017F0000D0000005461736B343A206661696C65BA
:101800006420746F2072656C656173652053657226
:101810007665722031210A0D000000005461736B5F
:10182000343A206661696C656420746F206163716D
:10183000756972652053657276657220310A0D00F4
:101840005461736B343A20556E6C6F636B696E67CD
:1018500020536572766572203220210A0D00000047
:101860005461736B343A206661696C656420746FEF
:101870002072656C656173652053657276657220B0
:1018800032210A0D00000000702F00005461736BBC
:10189000343A2042796521200A0D0000746872658F
:1018A000616434206661696C656420746F206163D3
:1018B00071756972652073656D6170686F726520FE
:1018C000300A0D0010B500210D48FFF778F80D49DA
:1018D00008600846006810B94FF0FF3010BD0AA03C
:1018E00001F04AF80020F9E710B506480068FFF754
:1018F00004F910B14FF0FF3010BD0020FCE70000EC
:10190000681700206C0100206372656174656420B3
:1019100073656D320A0D000010B500210D48FFF708
:101920004EF80D4908600846006810B94FF0FF30C6
:1019300010BD0AA001F020F80020F9E710B5064814
:101940000068FFF7DAF810B14FF0FF3010BD00204B
:10195000FCE70000841700207001002063726561BD
:101960007465642073656D330A0D000010B50021A5
:101970006948FEF738FF694908600846006810B9F1
:101980004FF0FF3010BD0020FCE710B56348006841
:10199000FEF78BFF10B14FF0FF3010BD0020FCE7C9
:1019A00070B505460024B2E000BF5DA000F0E4FF82
:1019B00060480068C16860A000F0DEFFFF21694850
:1019C00000F066FA4FF0FF315A480068FFF704F95B
:1019D00000286ADBFF21634800F079FA6249086059
:1019E000FF21604800F068FA60A000F0C5FF66487B
:1019F00000F0C2FF65A000F0BFFF6DA000F0BCFFCB
:101A000070480068FFF75FF820B16FA000F0B4FFE6
:101A100000BFFEE7FF21534800F059FA74490860FF
:101A2000FF21504800F048FA72A000F0A5FF7AA00C
:101A300000F0A2FF7D480068FFF745F820B17CA0C8
:101A400000F09AFF00BFFEE7FF21464800F03FFA92
:101A500081490860FF21434800F02EFA7FA000F082
:101A60008BFF87A000F088FF8A480068FFF72BF8FB
:101A700020B189A000F080FF00BFFEE790A000F039
:101A80007BFF974800F078FF96A000F075FFFF21DC
:101A9000344800F0FDF927480068FFF7EFF848B137
:101AA00099A000F069FF00BFFEE7A1A000F064FF6D
:101AB00000BFFEE7A7A000F05FFFAA4800F05CFFB0
:101AC00029480168A8A000F057FFB14800F054FF72
:101AD00061480168AFA000F04FFFBE4800F04CFF26
:101AE000BD480168BD4800F047FFBD4800F044FF15
:101AF000BC480168BC4800F03FFFBC4800F03CFF18
:101B00003B480168BA4800F037FF00BFFEE7012CF0
:101B1000FFF64AAF70BD000074010020A80100204C
:101B2000205461736B353A2048656C6C6F210A0D47
:101B300000000000C40100205461736B353A204C52
:101B40006F636B696E672053657276657231202111
:101B50002077697468207072696F726974792025C2
:101B6000640A0D0000100340B00100205461736B43
:101B7000353A2053657276657231204C6F636B6520
:101B8000642021200A0D0000883100005461736B2D
:101B9000353A20506572666F726D696E6720536FBB
:101BA0006D6520576F726B2021200A0D0000000028
:101BB00052656C656173696E67205461736B340A9A
:101BC0000D000000AC01002074687265616435206E
:101BD0006661696C656420746F2072656C65617301
:101BE000652073656D6170686F726520300A0D0045
:101BF000C00100205461736B353A5072696F72698D
:101C0000747920456C65766174657320746F205417
:101C100061736B340A0D000052656C656173696E07
:101C200067205461736B330A0D00000070010020BF
:101C300074687265616435206661696C65642074DE
:101C40006F2072656C656173652073656D61706886
:101C50006F726520330A0D00B40100205461736B6C
:101C6000353A5072696F7269747920456C65766196
:101C700074657320746F205461736B320A0D000019
:101C800052656C656173696E67205461736B310ACC
:101C90000D000000880000207468726561643520C2
:101CA0006661696C656420746F2072656C65617330
:101CB000652073656D6170686F726520310A0D0073
:101CC0005461736B353A20556E6C6F636B696E6748
:101CD00020536572766572203120210A0D000000C4
:101CE000B03200005461736B353A4D6F76657320E6
:101CF000746F204F726967696E616C205072696FF2
:101D0000726974790A0D00005461736B353A20666C
:101D100061696C656420746F2072656C65617365C0
:101D20002073656D6170686F72652030210A0D0047
:101D30005461736B35206661696C656420746F2033
:101D400061637175697265205365727665722031C1
:101D50000A0D00005461736B353A204279652120E9
:101D60000A0D0000D03000005468726561642035AF
:101D700020776974682053657276657231206E6FC2
:101D800020626C6F636B696E673A2025750A0D00DF
:101D900084300000546872656164203220626C6F88
:101DA000636B656420776974682053657276657229
:101DB000312C20636F6E7465787420737769746357
:101DC0006820746F2074687265616420353A20253C
:101DD000750A0D0018300000B80100202432000000
:101DE000B82F0000BC010020D431000024310000D5
:101DF0006832000010B500210D48FEF7E0FD0D49E6
:101E000008600846006810B94FF0FF3010BD0AA006
:101E100000F0B2FD0020F9E710B506480068FEF7B3
:101E20006CFE10B14FF0FF3010BD0020FCE7000049
:101E300094190020AC010020637265617465642010
:101E400073656D340A0D000010B54FF08070406C62
:101E5000C16D244888474FF08070406C81692248EA
:101E600088474FF08070406C41691F4888474FF0A9
:101E70008070C06B3121C2681C4890474FF0807061
:101E8000C06B4FF0FF32FF21836B1848984710BD9D
:101E900070B504460D464FF08070C06B29468268CD
:101EA00020469047002020654FF08070C06B294687
:101EB00042682046904770BD70B504460D464FF00D
:101EC0008070C06B294682682046904770BD70B50F
:101ED00004460D464FF08070C06B2946026C2046C8
:101EE000904770BD403D8007010400F000100340A2
:101EF00010B501211048FEF762FD10490860084640
:101F0000006810B94FF0FF3010BD01200B4909687F
:101F1000C8600A490968486109A000F02DFD002049
:101F2000F2E710B505480068FEF7E7FD10B14FF085
:101F3000FF3010BD0020FCE7B0190020C4010020D4
:101F400063726561746564207063655F53656D31AC
:101F50000A0D000010B501211048FEF730FD1049B0
:101F600008600846006810B94FF0FF3010BD02202D
:101F70000B490968C8600A490968486109A000F06E
:101F8000FBFC0020F2E710B505480068FEF7B5FD40
:101F900010B14FF0FF3010BD0020FCE7CC1900203D
:101FA000C8010020637265617465642053657276B0
:101FB0006572320A0D0000002DE9F04104460D461D
:101FC0004FF08071496C086E804707464FF0807172
:101FD000686A4969602322464E693946B047686B92
:101FE00084620020BDE8F08108B5F84800680090E0
:101FF00008BD01460868704770B505460C46606B21
:1020000090F8250000F0020010B14FF0FF3070BDD5
:10201000606B90F8250000F0010008B10020F6E7A1
:10202000606B0560606B406820F00100616B486088
:10203000606B406820F00200616B4860606B406834
:1020400020F00400616B4860606B406820F008007D
:10205000616B4860606B406820F01000616B486005
:10206000606B406820F02000616B4860606B4068E6
:1020700020F04000616B48600020616B81F8240013
:102080000021606B80F820104FF080726068526C05
:10209000916988474FF08072A06A526C91698847B5
:1020A0004FF08072A069126A916E884794F82010F0
:1020B0004FF08073E0691B6A5A6D90474FF0807251
:1020C000E068126A916E8847217D4FF08073206925
:1020D0001B6A5A6D90470120616B81F82500002032
:1020E00095E70146486B90F8250000F0020010B11A
:1020F0004FF0FF307047486B90F8250008B900207A
:10210000F8E700204A6B82F8250000BFF2E770B5BF
:1021100005460C46606B90F8250000F0010010B9F0
:102120004FF0FF3070BD606B4068C0F3400010B1ED
:102130006FF00100F6E7606B90F8250000F02000DA
:1021400010B16FF00100EDE725B1012D16D0022D81
:1021500024D116E0606B90F8250000F0020008B969
:102160000020DFE74FF08071606A49698A6C502176
:1021700090470120616B81F8250012E06FF00300A9
:10218000D0E7606B90F8250000F0020008B1002055
:10219000C8E70320616B81F8250002E06FF00300BF
:1021A000C0E700BF0020BDE72DE9F04106460D461F
:1021B000144606B11DB96FF00400BDE8F081606BF4
:1021C00090F8250000F0040010B94FF0FF30F4E75C
:1021D000606B90F8250000F0200010B16FF0010056
:1021E000EBE7606B90F8250040F02000616B81F810
:1021F0002500606B4661606BC5600021606BC1614A
:1022000022E072B6636BD3F81CC00CF10103676B5C
:10221000FB61636B5B6913F80C104FF08073606AAD
:102220005B691A68904762B64FF08071496C086E1E
:10223000804740F6B831B0FBF1F74FF08070406C4A
:10224000D0F8881038468847281EA5F10105D8D156
:10225000606B90F8250020F02000616B81F825006C
:102260000020AAE710B5034603B111B96FF00400CE
:1022700010BD506B90F8250000F0040010B94FF02D
:10228000FF30F5E7506B4068C0F3400010B16FF0CD
:102290000100EDE7506B406820F00200801C546B99
:1022A0006060506B8160506B406820F01000546B90
:1022B0006060506B406820F02000546B6060506B91
:1022C000406820F00800546B6060506B406820F05C
:1022D0004000546B6060506B03610024506B84615C
:1022E000506B90F82400022804D0506B90F8240022
:1022F000032800D100BF9068806C0020B8E72DE96A
:10230000F04180460E4617461C46B8F1000F01D03A
:1023100006B11FB96FF00400BDE8F081606B90F862
:10232000250000F0040010B94FF0FF30F4E7606BB7
:1023300090F82400022804D0606B90F82400032851
:1023400015D10321606B80F82210224639463046B1
:10235000FFF788FF05460DB12846DDE722463946DE
:102360004046FFF721FF054625B12846D4E74FF048
:10237000FF30D1E70020CFE70146486BC0697047C6
:102380000146486B806970472DE9F04106460F46CB
:102390001446606B90F8250000F0020018B94FF069
:1023A000FF30BDE8F081F0B215284CD010DC0528D4
:1023B0002AD006DC012813D0022813D003287ED1AE
:1023C00019E0102829D0112879D12BE0882D0000A0
:1023D0001638052873D2DFE800F04B4D4F596100E5
:1023E00001256FE02078C0F3400010B96FF00600BF
:1023F000D7E7022566E02078C0F3800010B96FF0BF
:102400000600CEE703255DE02078C0F3001010B988
:102410006FF00600C5E7052554E0606B80F820707A
:102420000020BEE72078C0F3001038B14FB9A06893
:10243000406C20F00200A168486402E04FF0FF30D9
:10244000AFE70020ADE747B1606B90F8250040F0A2
:102450000800616B81F8250008E0606B90F82500AA
:1024600020F00800616B81F8250000BF002098E78C
:10247000002096E7002094E7606B90F8250020F09C
:102480002000616B81F8250000208AE7606B4068BE
:1024900020F00200616B4860002082E7606B4068BA
:1024A00020F00200616B4860606B90F8250020F01E
:1024B0002000616B81F82500002072E7FFE76FF0D4
:1024C00003006EE700BF606B4068C0F3400028B9AE
:1024D000606B90F8250000F0200010B16FF0010053
:1024E0005FE7A06888B306F4403048B1B0F5803F9C
:1024F00007D0B0F5003F0FD0B0F5403F27D116E030
:1025000028E02078C0F3C01010B148F0400802E085
:102510006FF00B0045E71DE02088C0F3002010B1EC
:1025200048F0800802E06FF00B003AE712E02078F4
:10253000C0F3C01030B12088C0F3002010B148F0C3
:10254000C00803E06FF00B002BE704E002E06FF03F
:102550000B0026E700BF022D01D0032D0DD106F49C
:10256000802010B16FF00C001BE706F40020B0F5DE
:10257000002F02D06FF00D0013E721463846FFF719
:102580001BFD401C10B96FF007000AE7616B81F872
:1025900024504FF08072606A5269D1698847606B3D
:1025A00090F8250040F00400616B81F825000020C0
:1025B000F7E60146486B406870470246486B90F862
:1025C000250000F0040010B94FF0FF3070470020E4
:1025D000FCE70CB502469068D0B1506B90F825002E
:1025E00000F00400A0B10B09019863F30000019012
:1025F0004B09019863F3410001908B09019863F343
:10260000C3000190CB09019863F3820001900FE0B1
:10261000019820F001000190019820F00200019043
:10262000019820F008000190019820F0040001902A
:102630000198009B60F30003009301984308009801
:1026400063F34100009001988308009863F38200CF
:1026500000900198C308009863F3C30000900198AC
:102660000309009863F31F10009000980CBD70B52B
:1026700004460025606B006820B11DB1606B0168E5
:102680002846884770BD08B52F48FFF7B2FC009078
:1026900008BD10B504462C492046FFF7ADFC10BD1F
:1026A00010B52948FFF71DFD10BD10B50446264999
:1026B0002046FFF72CFD10BD70B504460D46224A9A
:1026C00029462046FFF770FD70BD70B504460D46E3
:1026D0001D4A29462046FFF7C5FD70BD70B504466A
:1026E0000D461646184B324629462046FFF707FE90
:1026F00070BD10B51448FFF73FFE10BD10B512486D
:10270000FFF73EFE10BD70B504460D460E4A294641
:102710002046FFF739FE70BD08B50B48FFF749FFAB
:10272000009008BD10B5044607492046FFF745FF55
:1027300010BD08B50448FFF74CFF009008BD10B568
:102740000148FFF794FF10BD8C2D00000648074993
:10275000086070470648006840F47000044908604B
:1027600001480249086070470024F400CC010020B1
:1027700088ED00E03F4880473F480047FEE7FEE71E
:10278000FEE7FEE7FEE7FEE7FEE7FEE7FEE7FEE721
:10279000FEE7FEE7FEE7FEE7FEE7FEE7FEE7FEE711
:1027A000FEE7FEE7FEE7FEE7FEE7FEE7FEE7FEE701
:1027B000FEE7FEE7FEE7FEE7FEE7FEE7FEE7FEE7F1
:1027C000FEE7FEE7FEE7FEE7FEE7FEE7FEE7FEE7E1
:1027D000FEE7FEE7FEE7FEE7FEE7FEE7FEE7FEE7D1
:1027E000FEE7FEE7FEE7FEE7FEE7FEE7FEE7FEE7C1
:1027F000FEE7FEE7FEE7FEE7FEE7FEE7FEE7FEE7B1
:10280000FEE7FEE7FEE7FEE7FEE7FEE7FEE7FEE7A0
:10281000FEE7FEE7FEE7FEE7FEE7FEE7FEE7FEE790
:10282000FEE7FEE7FEE7FEE7FEE7FEE7FEE7FEE780
:10283000FEE7FEE7FEE7FEE7FEE7FEE7FEE7FEE770
:10284000FEE7FEE7FEE7FEE7FEE7FEE7FEE7FEE760
:10285000FEE7FEE7FEE7FEE7FEE7FEE7FEE7FEE750
:10286000FEE7FEE7FEE7000004480549034A054B82
:1028700070470000552700006D020000781A002004
:10288000781C0020781A0020704753EA020C00F0F0
:1028900069802DE9F04B4FF00006002B1FBFB3FA03
:1028A00083F503FA05F424FA05F65E4012BF1643D9
:1028B000B2FA82F502FA05F4C5F120051EBF22FA2C
:1028C00005FC44EA0C04203556EA044C4FEA144453
:1028D00018BF641C4FF000084FF00009904271EBE4
:1028E000030C39D3002919BFB1FA81F701FA07F6B1
:1028F000B0FA80F700FA07F6C7F120071EBF20FAEA
:1029000007FC46EA0C062037B6FBF4FCA7EB0507EC
:10291000103F07F01F0BCBF120060CFA0BFB2CFA33
:1029200006F644BFB3460026202FA4BF5E464FF0F4
:10293000000B5BEA060C08BF4FF0010B19EB0B090B
:10294000ABFB027C48EB0608C01B06FB02CC0BFB72
:1029500003CC71EB0C01C1E70B46024641464846E9
:10296000BDE8F08B13B54FF000004FF00001AFF35E
:102970000080BDE81C4070470FB4044910B503AA9D
:10298000029800F077F910BC5DF814FB00000020FD
:102990002DE9F0410E460446002020622046E16801
:1029A000884730B3252805D0D4E901219047206A13
:1029B000401CF2E7E168204600278847050018D050
:1029C000A5F14100192802D820354FF4006732469E
:1029D000294620462760FDF7A3FC40B1012804D01A
:1029E000F61D26F007060836D8E7361DD6E7284636
:1029F000DAE7206ABDE8F08170B50C460546012A89
:102A000005D02878800600D5EA69002302E001237A
:102A100005E05B1C934202D2E05C0028F9D1A86972
:102A2000E618C01AA861286A184428622846AFF33D
:102A3000008004E0D5E9012114F8010B9047B4426D
:102A4000F8D32846AFF3008070BD00002DE9F041B7
:102A50000646002410687529314616A510D0AFF33C
:102A60000080002802DA404213A507E031688A0797
:102A700001D512A502E0490704D511A5012401E002
:102A8000AFF3008000210A2206F1240709E0B0FB21
:102A9000F2FCB0FBF2F302FB1C0030307854184615
:102AA000491C0028F3D123462A463046BDE8F041B0
:102AB00000F070B8000000002D0000002B000000A6
:102AC0002000000040EA0103024630B59B0710D108
:102AD0004FF0013400E008C208C91D1B9D4315EAF0
:102AE000C41FF8D013F0FF0102F8011B0DD01B0A20
:102AF000F8E711F8013B002B02F8013B05D011F873
:102B0000013B002B02F8013BF3D130BD10B5431C53
:102B100002E010F8011B71B18107FAD14FF00132C8
:102B200002C88C1A8C4314EAC211F9D0C01A0A06E2
:102B300003D0C01E10BDC01A10BD0A0401D0801EF3
:102B400010BD0902FCD0401E10BD4FF00002042948
:102B5000C0F0128010F0030C00F0A080CCF1040C47
:102B6000BCF1020F18BF00F8012BA8BF20F8022B00
:102B7000A1EB0C0100F092B85FEAC17C24BF00F821
:102B8000012B00F8012B48BF00F8012B704770475C
:102B9000704770472DE9F0470D4699469246044626
:102BA00000F124080168880604D5E06921F01001CD
:102BB000216000E00120A84201DD471B00E0002762
:102BC000A1697A1902EB0900081AA0612078C006F1
:102BD00002D42046AFF30080002608E0D4E90121AA
:102BE0001AF806009047206A401C761C20624E4569
:102BF000F4DB2078C0060AD52046AFF3008006E05B
:102C0000D4E9012130209047206A401C2062381E00
:102C1000A7F10107F4DC07E0D4E9012118F8050069
:102C20009047206A401C2062281EA5F10105F3DCB4
:102C30002046AFF300802078000602D50220BDE8D0
:102C4000F0870120FBE710B5436913B1AFF30080B3
:102C500001E0FFF7D1FE012010BD127800F1240140
:102C60000A7000224A700122EDE711684FF0FF322E
:102C7000E9E70000074B70B50D467B4400F039F8DA
:102C800004462846FDF7D0FB10B14FF0FF3070BD71
:102C9000204670BD91D7FFFF4FF0000200B51346EC
:102CA00094469646203922BFA0E80C50A0E80C506C
:102CB000B1F12001BFF4F7AF090728BFA0E80C501D
:102CC00048BF0CC05DF804EB890028BF40F8042B16
:102CD00008BF704748BF20F8022B11F0804F18BF83
:102CE00000F8012B7047000001694A1C0261087856
:102CF000704700B58FB0CDE901310021059105493C
:102D00007944CDE9031011466846FFF741FE0FB044
:102D100000BD0000E5FFFFFF754600F02BF8AE4652
:102D200005006946534620F00700854618B020B5D7
:102D3000FFF79AFDBDE820404FF000064FF0000776
:102D40004FF000084FF0000B21F00701AC46ACE853
:102D5000C009ACE8C009ACE8C009ACE8C0098D46C0
:102D6000704710B50446AFF300802046BDE8104020
:102D7000FDF7F0BA00487047141A00204FF0407079
:102D8000E1EE100A70470000030201020104000096
:102D9000001800F000C000400104000000400040A6
:102DA000020000000100000000400040010000009F
:102DB00000C00040000800F0050000000000000016
:102DC000E8190020E91F0000872600009326000074
:102DD000A1260000AB260000B9260000CB2600008B
:102DE000DD260000F3260000FD2600000727000076
:102DF0001927000025270000332700005461736B5A
:102E0000313A456C657661746573204375727265FD
:102E10006E74204365696C696E67205072696F72C9
:102E2000697479206F662053797374656D20746FAF
:102E300020536572766572203220692E652E2054EB
:102E400061736B310A0D00005461736B313A4D6F41
:102E50007665732043757272656E74204365696C84
:102E6000696E67205072696F72697479206F66208D
:102E700053797374656D20746F2053657276657233
:102E8000203120692E652E205461736B320A0D00AB
:102E90005461736B323A456C657661746573204397
:102EA000757272656E74204365696C696E67205037
:102EB00072696F72697479206F66205379737465D3
:102EC0006D20746F20536572766572203120692EF3
:102ED000652E205461736B320A0D00005461736BD0
:102EE000323A4D6F7665732043757272656E742049
:102EF0004365696C696E67205072696F7269747995
:102F0000206F662053797374656D20746F204F7243
:102F10006967696E616C205072696F726974790AB1
:102F20000D0000005461736B343A456C6576617432
:102F300065732043757272656E74204365696C69B0
:102F40006E67205072696F72697479206F662053C2
:102F5000797374656D20746F205365727665722085
:102F60003220692E652E205461736B310A0D0000EA
:102F70005461736B343A4D6F76657320437572728A
:102F8000656E74204365696C696E67205072696F65
:102F900072697479206F662053797374656D20743B
:102FA0006F204F726967696E616C205072696F7231
:102FB0006974790A0D0000000A54696D6520546136
:102FC0006B656E20666F722043617365343A2853D7
:102FD00069676E616C202852656C65617365292094
:102FE000612073656D6170686F7265207768656ECA
:102FF00020746865207369676E616C20646F657307
:103000002072656C6561736520612074687265610A
:1030100064290A0D000000000A54696D652054619E
:103020006B656E20666F722043617365333A285377
:1030300069676E616C202852656C65617365292033
:10304000612073656D6170686F7265207768656E69
:1030500020746865207369676E616C20646F6573A6
:10306000206E6F742072656C6561736520612062EB
:103070006C6F636B656420746872656164290A0D06
:10308000000000000A54696D652054616B656E2074
:10309000666F722043617365323A28576169742004
:1030A0006F6E20612073656D6170686F7265207747
:1030B00068656E207468652063616C6C6572206958
:1030C0007320626C6F636B6564290A0D0000000059
:1030D0000A54696D652054616B656E20666F7220BD
:1030E00043617365313A2857616974206F6E2061BE
:1030F000205043502073656D6170686F7265207752
:1031000068656E207468652063616C6C6572206907
:1031100073206E6F7420626C6F636B6564290A0D97
:10312000000000000A54696D652054616B656E20D3
:10313000666F722043617365353A28576169742060
:103140006F6E2073656D6170686F7265207768655A
:103150006E2063616C6C657220697320626C6F63B2
:103160006B206576656E207768656E207265736F7B
:103170007572636520697320617661696C61626C48
:1031800065290A0D000000005461736B353A456CE7
:103190006576617465732043757272656E74204341
:1031A00065696C696E67205072696F726974792005
:1031B0006F662053797374656D20746F2053657248
:1031C000766572203120692E652E205461736B3232
:1031D0000A0D000054687265616420352072656CC8
:1031E0006561736520536572766572312077686911
:1031F00063682072656C65617365207468726561CF
:1032000064203220636F6E746578742073776974FC
:10321000636820746F20746872656164323A202597
:10322000750A0D0054687265616420322072656C05
:1032300065617365205365727665723120616E64D5
:10324000206469646E6F742072656C6561736520BB
:10325000626C6F636B6564207468726561642034AE
:103260003A2025750A0D00005468726561642034A7
:1032700020626C6F636B65642077697468205365A6
:1032800072766572322C2074687265616420342015
:10329000636F6E74657874207377697463682074E3
:1032A0006F20746872656164353A2025750A0D00D7
:1032B0005461736B353A4D6F766573204375727246
:1032C000656E74204365696C696E67205072696F22
:1032D00072697479206F662053797374656D2074F8
:1032E0006F204F726967696E616C205072696F72EE
:1032F0006974790A0D0000001833000000000020F6
:10330000D0010000A80200006C330000D0010020B2
:10331000A81A000004030000015013500E2420FBE3
:103320000C072EFDFFFFFF2C0113980F2420C9105E
:1033300032020A29F43C138C116420B912092A388C
:10334000138013242005142933092A3813741524F3
:10335000202F1619E30A2AFF388113A0172420A171
:0C336000190A35FE4001191324F4000086
:04000005000027755B
:00000001FF
